{
  "_format": "hh-sol-artifact-1",
  "contractName": "DocumentTimestamp",
  "sourceName": "contracts/DocumentTimestamp.sol",
  "abi": [
    {
      "inputs": [
        {
          "internalType": "bytes32",
          "name": "docHash",
          "type": "bytes32"
        }
      ],
      "name": "getTimestamp",
      "outputs": [
        {
          "internalType": "uint256",
          "name": "",
          "type": "uint256"
        },
        {
          "internalType": "address",
          "name": "",
          "type": "address"
        }
      ],
      "stateMutability": "view",
      "type": "function"
    },
    {
      "inputs": [
        {
          "internalType": "bytes32",
          "name": "",
          "type": "bytes32"
        }
      ],
      "name": "records",
      "outputs": [
        {
          "internalType": "uint256",
          "name": "timestamp",
          "type": "uint256"
        },
        {
          "internalType": "address",
          "name": "submitter",
          "type": "address"
        }
      ],
      "stateMutability": "view",
      "type": "function"
    },
    {
      "inputs": [
        {
          "internalType": "bytes32",
          "name": "docHash",
          "type": "bytes32"
        }
      ],
      "name": "timestampDocument",
      "outputs": [],
      "stateMutability": "nonpayable",
      "type": "function"
    }
  ],
  "bytecode": "0x608060405234801561001057600080fd5b5061042a806100206000396000f3fe608060405234801561001057600080fd5b50600436106100415760003560e01c806301e6472514610046578063935d575314610077578063d45c443514610093575b600080fd5b610060600480360381019061005b91906102c7565b6100c4565b60405161006e92919061034e565b60405180910390f35b610091600480360381019061008c91906102c7565b610108565b005b6100ad60048036038101906100a891906102c7565b6101f4565b6040516100bb92919061034e565b60405180910390f35b60006020528060005260406000206000915090508060000154908060010160009054906101000a900473ffffffffffffffffffffffffffffffffffffffff16905082565b60008060008381526020019081526020016000206000015414610160576040517f08c379a0000000000000000000000000000000000000000000000000000000008152600401610157906103d4565b60405180910390fd5b60405180604001604052804281526020013373ffffffffffffffffffffffffffffffffffffffff168152506000808381526020019081526020016000206000820151816000015560208201518160010160006101000a81548173ffffffffffffffffffffffffffffffffffffffff021916908373ffffffffffffffffffffffffffffffffffffffff16021790555090505050565b6000806000806000858152602001908152602001600020604051806040016040529081600082015481526020016001820160009054906101000a900473ffffffffffffffffffffffffffffffffffffffff1673ffffffffffffffffffffffffffffffffffffffff1673ffffffffffffffffffffffffffffffffffffffff16815250509050806000015181602001519250925050915091565b600080fd5b6000819050919050565b6102a481610291565b81146102af57600080fd5b50565b6000813590506102c18161029b565b92915050565b6000602082840312156102dd576102dc61028c565b5b60006102eb848285016102b2565b91505092915050565b6000819050919050565b610307816102f4565b82525050565b600073ffffffffffffffffffffffffffffffffffffffff82169050919050565b60006103388261030d565b9050919050565b6103488161032d565b82525050565b600060408201905061036360008301856102fe565b610370602083018461033f565b9392505050565b600082825260208201905092915050565b7f416c72656164792074696d657374616d70656400000000000000000000000000600082015250565b60006103be601383610377565b91506103c982610388565b602082019050919050565b600060208201905081810360008301526103ed816103b1565b905091905056fea2646970667358221220e0d54aac5a4b4ceac80bbf31ae2e1ce3a569466a292de3626dabc6423138e30464736f6c63430008140033",
  "linkReferences": {},
  "deployedLinkReferences": {}
}